:020000040800F2
:10000000800600209D030008A5030008A703000840
:10001000A9030008AB030008AD03000800000000BE
:10002000000000000000000000000000AF03000816
:10003000B103000800000000B3030008B503000886
:10004000B7030008B7030008B7030008B7030008A8
:10005000B7030008B7030008B7030008B703000898
:10006000B7030008B7030008B7030008B703000888
:10007000B7030008B7030008B7030008B703000878
:10008000B7030008B7030008B7030008B703000868
:10009000B7030008B7030008B7030008B703000858
:1000A000B7030008B7030008B7030008B703000848
:1000B000F70200081D03000843030008B703000807
:1000C000B7030008B7030008B7030008B703000828
:1000D000B7030008B7030008B7030008B703000818
:1000E000B7030008B7030008B703000800F002F8E0
:1000F00000F03AF80AA090E8000C82448344AAF188
:100100000107DA4501D100F02FF8AFF2090EBAE885
:100110000F0013F0010F18BFFB1A43F0010318473B
:100120001005000030050000103A24BF78C878C1DF
:10013000FAD8520724BF30C830C144BF04680C60ED
:10014000704700000023002400250026103A28BF35
:1001500078C1FBD8520728BF30C148BF0B60704739
:100160001FB51FBD10B510BD00F02BFA1146FFF7EB
:10017000F7FF00F009F800F049FA03B4FFF7F2FFC7
:1001800003BC00F04DFA000000207D4908607D4965
:1001900008607D4908607D48806940F004007B4923
:1001A00088617B48006840F0020079490860084691
:1001B000006820F0040008600846006840F0200055
:1001C00008600846006820F04000086008460068A3
:1001D00040F4007008600846006820F48060086001
:1001E0006A48C06940F007006849C86148F69F4006
:1001F000890408854FF47A708885C006808940F0AC
:10020000010088810846008840F0010008801C2019
:1002100000F0AAF848F69F405E4908804FF4FA6063
:10022000091D08805B481C38008840F001005949CE
:100230001C39088057482838008840F0010055498B
:10024000283908801D2000F08FF848F69F40524959
:10025000088040F6B830091D08804F481C380088D7
:1002600040F001004C491C3908804B482838008870
:1002700040F001004849283908801E2000F074F839
:1002800038E03F48006838B941480C300068002029
:100290003F490C31086007E03D480C30006840F0F1
:1002A00001003B490C3108603648006838B93848CD
:1002B0000C300068002036490C31086007E03448F3
:1002C0000C30006840F0020031490C3108602E48C3
:1002D000006838B92E480C30006800202C490C31D9
:1002E000086007E02A480C30006840F00400284904
:1002F0000C310860C5E74FF08040008A20F0010013
:100300004FF0804108821E48006818B901201C493E
:10031000086002E000201A49086070471D4818383C
:10032000008820F001001B49183908801548006832
:1003300018B901201349086002E000201149086043
:10034000704715481838008820F001001249183904
:1003500008800D48006818B901200B49086002E0C8
:10036000002009490860704700F01F0201219140F8
:100370004209920002F1E022C2F800117047000029
:1003800000000020040000200800002000100240AF
:100390000008014028040040280800400948804720
:1003A00009480047FEE7FEE7FEE7FEE7FEE7FEE757
:1003B000FEE7FEE7FEE7FEE704480549054A064B6F
:1003C00070470000BB040008ED000008800000201A
:1003D0008006002080020020800200200CB5002052
:1003E000019000906C48006840F480306A490860D1
:1003F00000BF6948006800F4003000900198401C7C
:100400000190009818B90198B0F5A06FF1D1624839
:10041000006800F4003010B10120009001E00020DD
:1004200000900098012843D15C48006840F010001B
:100430005A4908600846006820F003000860084632
:10044000006840F002000860534840685249486024
:100450000846406848600846406840F4806048604C
:100460000846406820F47C1048600846406840F424
:10047000E81048600846006840F08070086000BFDF
:100480004548006800F000700028F9D042484068F4
:1004900020F00300404948600846406840F00200F0
:1004A000486000BF3C48406800F00C000828F9D1C3
:1004B0000CBD10B5FFF792FF10BD10B536480068AF
:1004C00040F001003449086008464068344908405B
:1004D0003149486008460068324908402E490860A2
:1004E0000846006820F4802008600846406820F430
:1004F000FE0048604FF41F008860FFF7DAFF4FF0FE
:1005000000602949086010BD10B5002100200022BC
:10051000214B5B6803F00C0121B1042906D00829A6
:1005200028D107E0214B224C236027E01F4B204CB1
:10053000236023E0184B5B6803F47010164B5B6874
:1005400003F48032022303EB904022B9194B43435A
:10055000174C23600DE0104B5B6803F4003323B1AC
:10056000144B4343124C236003E0104B4343104CA5
:10057000236003E00D4B0E4C236000BF00BF064B11
:100580005B68C3F303130C4CE15C094B1B68CB4065
:10059000074C236010BD0000001002400020024004
:1005A0000000FFF8FFFFF6FE08ED00E000127A0001
:1005B0000C00002000093D0010000020704770472B
:1005C0007047754600F028F8AE4605006946534668
:1005D00020F00700854618B020B5FFF7EDFEBDE816
:1005E00020404FF000064FF000074FF000084FF09A
:1005F000000B21F00701AC46ACE8C009ACE8C0092B
:10060000ACE8C009ACE8C0098D4670470446AFF3BA
:1006100000802046FFF7B1FD004870472000002011
:1006200001491820ABBEFEE726000200704700001B
:1006300050060008000000202000000028010008EB
:100640007006000820000020600600004401000839
:1006500000000000000000000000000000A24A04AA
:100660000000000000000000010203040607080962
:040000050800039D4F
:00000001FF
