:020000040800F2
:100000007806002059030008610300086303000814
:10001000650300086703000869030008000000008A
:100020000000000000000000000000006B0300085A
:100030006D030008000000006F0300087103000852
:1000400073030008730300087303000873030008B8
:1000500073030008730300087303000873030008A8
:100060007303000873030008730300087303000898
:100070007303000873030008730300087303000888
:100080007303000873030008730300087303000878
:100090007303000873030008730300087303000868
:1000A0007303000873030008730300087303000858
:1000B00077020008B5020008F30200087303000885
:1000C0007303000873030008730300087303000838
:1000D0007303000873030008730300087303000828
:1000E00073030008730300087303000800F002F8AC
:1000F00000F03AF80AA090E8000C82448344AAF188
:100100000107DA4501D100F02FF8AFF2090EBAE885
:100110000F0013F0010F18BFFB1A43F0010318473B
:10012000CC040000EC040000103A24BF78C878C169
:10013000FAD8520724BF30C830C144BF04680C60ED
:10014000704700000023002400250026103A28BF35
:1001500078C1FBD8520728BF30C148BF0B60704739
:100160001FB51FBD10B510BD00F009FA1146FFF70D
:10017000F7FF00F009F800F027FA03B4FFF7F2FFE9
:1001800003BC00F02BFA00006F48806940F00400C7
:100190006D4988616D48006840F003006B49086054
:1001A0000846006820F00C0008600846006840F02F
:1001B000300008600846006820F0C000086008466B
:1001C000006840F4407008600846006820F4406011
:1001D00008605D48C06940F007005B49C86148F6A7
:1001E0009F40890408854FF4FA60888580068089DD
:1001F00040F0010088810846008840F00100088036
:100200001C2000F095F848F69F40514908804FF4B3
:10021000FA60091D08804E481C38008840F0010033
:100220004B491C3908804A482838008840F00100B2
:100230004749283908801D2000F07AF848F69F4089
:10024000444908804FF4FA60091D088041481C3871
:10025000008840F001003F491C3908803D4828389B
:10026000008840F001003B49283908801E2000F03A
:100270005FF800BFFEE74FF08040008A20F00100E9
:100280004FF08041088231480830006800F00200D9
:1002900038B12E480C30006800202C490C31086021
:1002A00007E02A480C30006840F0020027490C3172
:1002B0000860704726481838008820F0010024495B
:1002C0001839088021480830006800F0010038B172
:1002D0001E480C30006800201C490C31086007E003
:1002E0001A480C30006840F0010018490C310860D1
:1002F000704718481838008820F00100154918394F
:10030000088012480830006800F0040038B10F4837
:100310000C30006800200D490C31086007E00B48E4
:100320000C30006840F0040008490C310860704748
:1003300000F01F02012191404209920002F1E022E7
:10034000C2F8001170470000001002400008014090
:100350002804004028080040094880470948004711
:10036000FEE7FEE7FEE7FEE7FEE7FEE7FEE7FEE765
:10037000FEE7FEE704480549054A064B70470000C2
:1003800077040008ED0000087800002078060020BF
:1003900078020020780200200CB500200190009027
:1003A0006C48006840F480306A49086000BF6948C2
:1003B000006800F4003000900198401C0190009803
:1003C00018B90198B0F5A06FF1D16248006800F447
:1003D000003010B10120009001E000200090009852
:1003E000012843D15C48006840F010005A49086079
:1003F0000846006820F0030008600846006840F0E6
:100400000200086053484068524948600846406806
:1004100048600846406840F480604860084640688C
:1004200020F47C1048600846406840F4E8104860BA
:100430000846006840F08070086000BF45480068CA
:1004400000F000700028F9D04248406820F0030016
:10045000404948600846406840F00200486000BFDC
:100460003C48406800F00C000828F9D10CBD10B5DC
:10047000FFF792FF10BD10B53648006840F001004C
:1004800034490860084640683449084031494860AA
:1004900008460068324908402E490860084600684E
:1004A00020F4802008600846406820F4FE00486080
:1004B0004FF41F008860FFF7DAFF4FF00060294912
:1004C000086010BD10B5002100200022214B5B68A0
:1004D00003F00C0121B1042906D0082928D107E036
:1004E000214B224C236027E01F4B204C236023E04C
:1004F000184B5B6803F47010164B5B6803F4803292
:10050000022303EB904022B9194B4343174C23605D
:100510000DE0104B5B6803F4003323B1144B4343ED
:10052000124C236003E0104B4343104C236003E064
:100530000D4B0E4C236000BF00BF064B5B68C3F33E
:1005400003130C4CE15C094B1B68CB40074C236048
:1005500010BD000000100240002002400000FFF823
:10056000FFFFF6FE08ED00E000127A000000002018
:1005700000093D0004000020704770477047754631
:1005800000F028F8AE4605006946534620F0070003
:10059000854618B020B5FFF7EDFEBDE820404FF0CE
:1005A00000064FF000074FF000084FF0000B21F05D
:1005B0000701AC46ACE8C009ACE8C009ACE8C0092A
:1005C000ACE8C0098D4670470446AFF30080204672
:1005D000FFF7D3FD004870471400002001491820A0
:1005E000ABBEFEE726000200704700000C060008C4
:1005F0000000002014000000280100082006000868
:1006000014000020640600004401000800A24A040F
:1006100000000000000000000102030406070809B2
:040000050800035993
:00000001FF
