:020000040800F2
:100000007806002041020008490200084B0200085F
:100010004D0200084F0200085102000800000000D5
:100020000000000000000000000000005302000873
:10003000550200080000000057020008590200089D
:100040005B0200085B0200085B0200085B0200081C
:100050005B0200085B0200085B0200085B0200080C
:100060005B0200085B0200085B0200085B020008FC
:100070005B0200085B0200085B0200085B020008EC
:100080005B0200085B0200085B0200085B020008DC
:100090005B0200085B0200085B0200085B020008CC
:1000A0005B0200085B0200085B0200085B020008BC
:1000B0005B020008FF0100085B0200085B02000809
:1000C0005B0200085B0200085B0200085B0200089C
:1000D0005B0200085B0200085B0200085B0200088C
:1000E0005B0200085B0200085B02000800F002F8F7
:1000F00000F03AF80AA090E8000C82448344AAF188
:100100000107DA4501D100F02FF8AFF2090EBAE885
:100110000F0013F0010F18BFFB1A43F0010318473B
:10012000B4030000D4030000103A24BF78C878C19B
:10013000FAD8520724BF30C830C144BF04680C60ED
:10014000704700000023002400250026103A28BF35
:1001500078C1FBD8520728BF30C148BF0B60704739
:100160001FB51FBD10B510BD00F07DF91146FFF79A
:10017000F7FF00F009F800F09BF903B4FFF7F2FF76
:1001800003BC00F09FF900002A48806940F0040099
:10019000284988612848006840F003002649086023
:1001A0000846006820F00C0008602248C06940F052
:1001B00002002049C8614EF65F202049088040F2C5
:1001C000E730091D08801D481C38008840F00100F8
:1001D0001A491C39088019482838008840F0010065
:1001E0001649283908801D200121814042099200CA
:1001F00002F1E022C2F8001100BF00BFFEE70F4885
:100200001838008820F001000C49183908800A4885
:100210000830006800F0010038B107480C30006871
:10022000002005490C31086003E0012002490C312F
:100230000860704700100240000801402804004098
:100240000948804709480047FEE7FEE7FEE7FEE76A
:10025000FEE7FEE7FEE7FEE7FEE7FEE704480549A6
:10026000054A064B704700005F030008ED000008D8
:100270007800002078060020780200207802002014
:100280000CB50020019000906C48006840F480306C
:100290006A49086000BF6948006800F400300090B7
:1002A0000198401C0190009818B90198B0F5A06F12
:1002B000F1D16248006800F4003010B101200090D4
:1002C00001E0002000900098012843D15C480068BC
:1002D00040F010005A4908600846006820F003000A
:1002E00008600846006840F0020008605348406813
:1002F000524948600846406848600846406840F4F3
:10030000806048600846406820F47C1048600846D9
:10031000406840F4E81048600846006840F080708B
:10032000086000BF4548006800F000700028F9D060
:100330004248406820F00300404948600846406851
:1003400040F00200486000BF3C48406800F00C00EC
:100350000828F9D10CBD10B5FFF792FF10BD10B5FC
:100360003648006840F0010034490860084640689B
:10037000344908403149486008460068324908401D
:100380002E4908600846006820F48020086008466E
:10039000406820F4FE0048604FF41F008860FFF7BB
:1003A000DAFF4FF000602949086010BD10B5002148
:1003B00000200022214B5B6803F00C0121B10429CD
:1003C00006D0082928D107E0214B224C236027E0E2
:1003D0001F4B204C236023E0184B5B6803F4701024
:1003E000164B5B6803F48032022303EB904022B982
:1003F000194B4343174C23600DE0104B5B6803F42B
:10040000003323B1144B4343124C236003E0104BE1
:100410004343104C236003E00D4B0E4C236000BFA0
:1004200000BF064B5B68C3F303130C4CE15C094B44
:100430001B68CB40074C236010BD00000010024039
:10044000002002400000FFF8FFFFF6FE08ED00E08C
:1004500000127A000000002000093D000400002086
:10046000704770477047754600F028F8AE460500A3
:100470006946534620F00700854618B020B5FFF7BF
:10048000EDFEBDE820404FF000064FF000074FF0B2
:1004900000084FF0000B21F00701AC46ACE8C009A2
:1004A000ACE8C009ACE8C009ACE8C0098D467047AB
:1004B0000446AFF300802046FFF75FFE0048704718
:1004C0001400002001491820ABBEFEE72600020000
:1004D00070470000F4040008000000201400000031
:1004E0002801000808050008140000206406000028
:1004F0004401000800A24A040000000000000000BF
:080500000102030406070809CB
:0400000508000241AC
:00000001FF
