:020000040800F2
:1000000080060020ED020008F5020008F702000853
:10001000F9020008FB020008FD02000800000000D1
:10002000000000000000000000000000FF020008C7
:100030000103000800000000030300080503000896
:100040000703000807030008070300080703000868
:100050000703000807030008070300080703000858
:100060000703000807030008070300080703000848
:100070000703000807030008070300080703000838
:100080000703000807030008070300080703000828
:100090000703000807030008070300080703000818
:1000A0000703000807030008070300080703000808
:1000B0009B02000807030008070300080703000865
:1000C00007030008070300080703000807030008E8
:1000D00007030008070300080703000807030008D8
:1000E00007030008070300080703000800F002F8F0
:1000F00000F03AF80AA090E8000C82448344AAF188
:100100000107DA4501D100F02FF8AFF2090EBAE885
:100110000F0013F0010F18BFFB1A43F0010318473B
:100120006004000080040000103A24BF78C878C141
:10013000FAD8520724BF30C830C144BF04680C60ED
:10014000704700000023002400250026103A28BF35
:1001500078C1FBD8520728BF30C148BF0B60704739
:100160001FB51FBD10B510BD00F0D3F91146FFF744
:10017000F7FF00F009F800F0F1F903B4FFF7F2FF20
:1001800003BC00F0F5F90000282054490860002065
:10019000534908605348806940F004005149886120
:1001A0005148006840F002004F4908600846006866
:1001B00020F0040008600846006840F02000086055
:1001C0000846006820F0400008600846006840F4D7
:1001D000007008600846006820F4806008604148AC
:1001E000C06940F007003F49C86148F69F40890454
:1001F00008853A48008888850846808940F00100D3
:1002000088810846008840F0010008801C200121F8
:1002100081404209920002F1E022C2F8001100BFC1
:100220003AE02F48006878B92F480C300068002069
:100230002D490C3108600846006800200860084617
:10024000006840F0010008602548006801280FD1CF
:1002500025480C300068002023490C31086008460E
:100260000068002008600846006840F0020008604E
:100270001B48006802280FD11B480C300068002082
:1002800019490C31086008460068002008600846DB
:10029000006840F004000860C3E7104800680528C3
:1002A00004DD0E480068401E0C4908600B480088B9
:1002B0004FF0804188850846008A20F001000882BE
:1002C00007480068022803D100200549086004E0BF
:1002D00003480068401C0249086070470400002081
:1002E000000000200010024000080140094880473B
:1002F00009480047FEE7FEE7FEE7FEE7FEE7FEE708
:10030000FEE7FEE7FEE7FEE704480549054A064B1F
:10031000704700000B040008ED000008800000207A
:100320008006002080020020800200200CB5002002
:10033000019000906C48006840F480306A49086081
:1003400000BF6948006800F4003000900198401C2C
:100350000190009818B90198B0F5A06FF1D16248EA
:10036000006800F4003010B10120009001E000208E
:1003700000900098012843D15C48006840F01000CC
:100380005A4908600846006820F0030008600846E3
:10039000006840F0020008605348406852494860D5
:1003A0000846406848600846406840F480604860FD
:1003B0000846406820F47C1048600846406840F4D5
:1003C000E81048600846006840F08070086000BF90
:1003D0004548006800F000700028F9D042484068A5
:1003E00020F00300404948600846406840F00200A1
:1003F000486000BF3C48406800F00C000828F9D174
:100400000CBD10B5FFF792FF10BD10B5364800685F
:1004100040F001003449086008464068344908400B
:100420003149486008460068324908402E49086052
:100430000846006820F4802008600846406820F4E0
:10044000FE0048604FF41F008860FFF7DAFF4FF0AE
:1004500000602949086010BD10B50021002000226D
:10046000214B5B6803F00C0121B1042906D0082957
:1004700028D107E0214B224C236027E01F4B204C62
:10048000236023E0184B5B6803F47010164B5B6825
:1004900003F48032022303EB904022B9194B43430B
:1004A000174C23600DE0104B5B6803F4003323B15D
:1004B000144B4343124C236003E0104B4343104C56
:1004C000236003E00D4B0E4C236000BF00BF064BC2
:1004D0005B68C3F303130C4CE15C094B1B68CB4016
:1004E000074C236010BD00000010024000200240B5
:1004F0000000FFF8FFFFF6FE08ED00E000127A00B2
:100500000800002000093D000C00002070477047E3
:100510007047754600F028F8AE4605006946534618
:1005200020F00700854618B020B5FFF7EDFEBDE8C6
:1005300020404FF000064FF000074FF000084FF04A
:10054000000B21F00701AC46ACE8C009ACE8C009DB
:10055000ACE8C009ACE8C0098D4670470446AFF36B
:1005600000802046FFF709FE004870471C0000206D
:1005700001491820ABBEFEE72600020070470000CC
:10058000A0050008000000201C0000002801000851
:10059000BC0500081C00002064060000440100089F
:1005A000000000000000000000A24A04000000005B
:0C05B00000000000010203040607080917
:04000005080002ED00
:00000001FF
